:020000040800F2
:100000002004002045010008F90500080304000849
:10001000F5050008B90100085D0B000800000000AC
:100020000000000000000000000000007907000848
:10003000BD010008000000008106000865080008F6
:100040005F0100085F0100085F0100085F01000810
:100050005F0100085F0100085F010008E901000876
:100060005F0100085F0100085F0100085F010008F0
:100070005F0100085F0100085F0100085F010008E0
:100080005F0100085F0100085F0100085F010008D0
:100090005F0100085F0100085F0100085F010008C0
:1000A0005F0100085F0100085F0100085F010008B0
:1000B0005F0100085F0100085F0100085F010008A0
:1000C0005F0100085F0100085F0100085F01000890
:1000D0005F010008C90800085F0100085F0100080F
:1000E000C10100085F0100085F0100085F0100080E
:1000F0005F0100085F0100085F0100085F01000860
:100100005F0100085F0100085F0100085F0100084F
:100110005F0100085F0100085F0100085F0100083F
:100120005F0100085F0100085F0100085F0100082F
:10013000DFF80CD000F02EF800480047190D000839
:10014000200400200648804706480047FEE7FEE7F7
:10015000FEE7FEE7FEE7FEE7FEE7FEE7FEE7FEE777
:10016000690800083101000830B50B46014600203F
:100170002022012409E021FA02F59D4205D303FA69
:1001800002F5491B04FA02F52844151EA2F10102EA
:10019000F1DC30BD064C074D06E0E06840F001039D
:1001A00094E8070098471034AC42F6D3FFF7C4FF39
:1001B0006C0D00088C0D000800BFFEE770470000C2
:1001C00010B54FF4004000F027F848B10548C0686A
:1001D00080F400500349C8604FF4004000F016F866
:1001E00010BD00000010014010B5022000F014F80E
:1001F00040B10548C06880F400500349C86002203F
:1002000000F004F810BD0000001001400149086032
:100210007047000014040140014600200022074BF3
:100220001B6803EA0102054B14331B680B4013B132
:100230000AB1012000E000207047000000040140E6
:100240002DE9F0410246002500260020002300246D
:10025000002791F803C00CF00F0591F803C00CF0D3
:10026000100CBCF1000F03D091F802C04CEA050558
:1002700091F800C0BCF1000F31D0146800202BE0D1
:100280004FF0010C0CFA00F3B1F800C00CEA0306C1
:100290009E4220D183004FF00F0C0CFA03F7BC43B1
:1002A00005FA03FC4CEA040491F803C0BCF1280FE2
:1002B00006D14FF0010C0CFA00FCC2F814C00AE0A1
:1002C00091F803C0BCF1480F05D14FF0010C0CFAB6
:1002D00000FCC2F810C0401C0828D1D31460B1F84B
:1002E00000C0BCF1FF0F34DD546800202EE000F1A7
:1002F000080C4FF0010808FA0CF3B1F800C00CEA42
:1003000003069E4221D183004FF00F0C0CFA03F735
:10031000BC4305FA03FC4CEA040491F803C0BCF1A9
:10032000280F05D100F1080C08FA0CF8C2F8148067
:1003300091F803C0BCF1480F07D100F1080C4FF051
:10034000010808FA0CF8C2F81080401C0828CED327
:100350005460BDE8F0810000F0B50A460023002497
:100360000021002500F00046B6F1004F02D11D4EDD
:10037000F16901E01B4E7168C0F3034583B200F4DC
:100380004016B6F5401F08D121F07061154E766811
:1003900026F07066134F7E6012E000F48016B6F50A
:1003A000801F06D1032606FA05F4A14341F07061CF
:1003B00006E0460D360103FA06F6B14341F07061DE
:1003C00022B1460D360103FA06F6314300F000462D
:1003D000B6F1004F02D1034EF16101E0014E7160B0
:1003E000F0BD0000000001400246002093680B4071
:1003F0000BB1012000E000207047416170470161AE
:10040000704700BFFEE7000008B50121052000F09D
:1004100039F901212248FFF79FFF0121042000F054
:1004200031F94FF40040ADF8000048208DF803008A
:1004300069461C48FFF704FF0121082000F022F95B
:100440000220ADF8000048208DF8030069461648E8
:10045000FFF7F6FE0121082000F014F90120ADF8A5
:10046000000048208DF8030069460F48FFF7E8FEBA
:100470000121082000F006F92020ADF800006946AF
:100480000948FFF7DDFE0121042000F0FBF84FF4DE
:100490000060ADF8000069460248FFF7D1FE08BDD4
:1004A0000002300000080140000C014070B5054614
:1004B0000E46002431462846FFF796FF58B9601CC7
:1004C000C4B200BF31462846FFF78EFF08B9022CA0
:1004D000F8D0012070BD0020FCE7000008B5012124
:1004E000052000F0CFF801213E48FFF735FF01213C
:1004F000102000F0C7F84FF40050ADF800001020B5
:100500008DF8030003208DF8020069463648FFF796
:1005100097FE0121082000F0B5F82020ADF800007A
:1005200069463248FFF78CFE0121082000F0AAF846
:100530001020ADF8000069462C48FFF781FE01212C
:10054000082000F09FF84FF40050ADF80000694615
:100550002648FFF775FE0121082000F093F84FF4BC
:100560008040ADF8000069462048FFF769FE012190
:10057000082000F087F84FF40040ADF8000069460D
:100580001A48FFF75DFE0121042000F07BF84FF4CC
:100590008070ADF8000069461548FFF751FE4FF432
:1005A00000511148FFF72BFF10211048FFF727FFDC
:1005B00020210D48FFF723FF4FF400510B48FFF7B0
:1005C0001EFF4FF480410948FFF719FF4FF4004127
:1005D0000648FFF714FF4FF480710548FFF70FFF3F
:1005E00008BD00000002300000100140000C014076
:1005F0000008014000BFFEE77047000070B5002111
:1006000000230F22C47804B3154C246804F4E0647A
:10061000C4F5E064210AC1F10403CA40447804FA35
:1006200003F184781440214309010E4C0678A1554A
:10063000047804F01F050124AC4005786D11AD006D
:1006400005F1E025C5F8004109E0047804F01F0534
:100650000124AC40044D0678761145F8264070BD63
:100660000CED00E000E400E080E100E0024901431D
:10067000024A1160704700000000FA050CED00E02E
:100680007047000029B1064A92690243044B9A61FF
:1006900004E0034A92698243014B9A61704700006B
:1006A0000010024030B500210022002400232D4D0F
:1006B0006D6805F00C0121B1042905D0082923D16A
:1006C00005E0294D056022E0274D05601FE0254D1E
:1006D0006D6805F47012234D6D6805F480340225B1
:1006E00005EB92421CB9214D554305600BE01D4DB1
:1006F0006D6805F400351DB11C4D5543056002E0E1
:10070000194D5543056002E0174D056000BF00BF5D
:10071000144D6D6805F0F0010909154D6B5C056815
:10072000DD4045600F4D6D6805F4E061090A104D2C
:100730006B5C4568DD4085600A4D6D6805F460516D
:10074000C90A0B4D6B5C4568DD40C560054D6D68A1
:1007500005F44041890B074D6B5CC568B5FBF3F5AB
:10076000056130BD0010024000127A0000093D0012
:100770000000002010000020704710B500F002F8C3
:1007800010BD00000CB500200190009033480068B7
:1007900040F480303149086000BF3048006800F400
:1007A000003000900198401C0190009818B9019801
:1007B000B0F5A06FF1D12948006800F4003010B105
:1007C0000120009001E0002000900098012843D112
:1007D0002348006840F0100021490860084600687E
:1007E00020F0030008600846006840F0020008603E
:1007F0001A484068194948600846406848600846F9
:10080000406840F4806048600846406820F47C10EE
:1008100048600846406840F4E810486008460068B0
:1008200040F08070086000BF0C48006800F0007065
:100830000028F9D00948406820F0030007494860C3
:100840000846406840F00200486000BF0348406826
:1008500000F00C000828F9D10CBD00000010024087
:10086000002002407047000010B51348006840F0B7
:1008700001001149086008464068104908400E49C7
:100880004860084600680E4908400B490860084661
:10089000006820F4802008600846406820F4FE00CC
:1008A00048604FF41F008860FFF767FF4FF000605B
:1008B0000449086010BD0000001002400000FFF86D
:1008C000FFFFF6FE08ED00E010B540F225510548A7
:1008D00000F06DF820B1034800F037F902490870C4
:1008E00010BD0000003801401400002021B18289B1
:1008F00042F40052828104E082894DF6FF731A406F
:100900008281704700B585B001210420FFF7BAFE4F
:1009100001218803FFF7B6FE4FF40070ADF8100018
:1009200018208DF8130003208DF8120004A9174831
:10093000FFF786FC4FF48060ADF8100004208DF8BE
:10094000130004A91148FFF77BFC4FF4E13000903D
:100950000020ADF80400ADF80600ADF80800ADF8D1
:100960000C000C20ADF80A006946094800F06EF84A
:1009700000F0D8F8012240F22551054800F041F876
:1009800001210348FFF7B2FF05B000BD0008014098
:100990000038014002460020B1F5007F00D100BFC1
:1009A00013880B400BB1012000E00020704770B5A8
:1009B0000246002400230025002040F66A16B142BA
:1009C00000D100BFC1F3421501F01F03012606FA52
:1009D00003F3012D02D19689334006E0022D02D1A6
:1009E000168A334001E0968A33400C12012606FA3B
:1009F00004F41688344013B10CB1012000E000204B
:100A000070BDF0B50346002400260025002040F606
:100A10006A17B94200D100BF1846C1F3421401F071
:100A20001F06012707FA06F5012C01D10C3004E05E
:100A3000022C01D1103000E014301AB107682F43A6
:100A4000076002E00768AF430760F0BD2DE9F0479B
:100A500086B005460E460024A24600BFA1460027E8
:100A6000B08900B100BF2F462C8A4CF6FF700440BD
:100A7000F08804432C82AC894EF6F3100440B08811
:100A800031890843718908430443AC81AC8A4FF62D
:100A9000FF400440B0890443AC8201A8FFF702FE86
:100AA0001F48874202D1DDF810A001E0DDF80CA05C
:100AB000A88900F4004040B10AEBCA0000EB0A101C
:100AC00031684900B0FBF1F807E00AEBCA0000EB1F
:100AD0000A1031688900B0FBF1F86420B8FBF0F02F
:100AE00004012009642101FB1089A88900F4004059
:100AF00040B1322000EBC900B0FBF1F000F007007C
:100B0000044308E0322000EB09106421B0FBF1F04F
:100B100000F00F0004432C8106B0BDE8F087000010
:100B20000038014008B54FF4A060FFF79FFD252075
:100B30008DF8000001208DF801008DF802008DF87D
:100B400003006846FFF75AFD08BD01468888C0F3D8
:100B500008007047C1F308028280704700BFFEE7BB
:100B60000FB4054B10B503A9044A029800F018F819
:100B700010BC5DF814FB0000F50C00081800002004
:100B800002E008C8121F08C1002AFAD17047704756
:100B9000002001E001C1121F002AFBD170470000B4
:100BA0002DE9FF4F89B09B460446002506E0252825
:100BB0000BD05A460B999047641C6D1C2078002876
:100BC000F5D10DB02846BDE8F08F0027B8460122C8
:100BD000474900E0074314F8013F203B02FA03F0C5
:100BE0000842F7D120782E2819D114F8010F47F0C8
:100BF00004072A280ED06FF02F022078A0F13001D0
:100C000009290CD808EB880102EB410100EB01082F
:100C1000641CF2E70A98641C50F8048B0A90207850
:100C20000028CED0642808D0692806D075281ED0A8
:100C30005A460B9990476D1C58E00A994FF00A09E3
:100C400001C90A91002802DA40422D2102E039054B
:100C500004D52B218DF82010012103E0F90704D0E1
:100C60002021F7E78A4608AE0DE00021FAE70A994D
:100C70004FF00A0901C90A91F7E74946FFF774FAEC
:100C8000303106F8011D0028F7D1ADEB060000F168
:100C90002009780701D44FF00108C84502DDA8EB10
:100CA000090000E000208046002706E008A85A4618
:100CB000C05D0B9990476D1C7F1C5745F6DB04E027
:100CC00030205A460B9990476D1CB8F10001A8F1ED
:100CD0000108F5DC05E016F8010B5A460B99904720
:100CE0006D1CB9F10001A9F10109F4DC641C65E790
:100CF0000928010070B504460D46E1B20548FFF72A
:100D000029FF00BF80210348FFF744FE0028F9D0E7
:100D1000204670BD003801400024FFF7F3FDFFF7C7
:100D2000DDFBFFF771FB15E04FF400410A48FFF7C8
:100D3000BDFB50B14FF400510848FFF75EFB214660
:100D4000641C07A0FFF70CFF04E04FF400510348B8
:100D5000FFF755FBE8E700000008014000100140E4
:100D6000636E74203D2025640D0A00008C0D000880
:100D7000000000201C000000800B0008A80D0008E7
:100D80001C00002004040000900B0008000000007C
:100D9000010203040102030406070809020406080D
:080DA00000000000000000004B
:0400000508000131BD
:00000001FF
