:020000040800F2
:1000000080970020DD010008B5070008670500089B
:10001000B10700081D030008150D000800000000CE
:100020000000000000000000000000004501000882
:10003000210300080000000089010008190A0008D7
:10004000F7010008F7010008F7010008F7010008B0
:10005000F7010008F7010008F70100084D03000848
:10006000F7010008F7010008F7010008F701000890
:10007000F7010008F7010008F7010008F701000880
:10008000F7010008F7010008F7010008F701000870
:10009000F7010008F7010008F7010008F701000860
:1000A000F7010008F7010008F7010008F701000850
:1000B000F7010008F7010008F7010008F701000840
:1000C000F7010008F7010008F7010008F701000830
:1000D000F7010008810A0008F7010008F70100088D
:1000E00025030008F7010008F7010008F7010008E0
:1000F000F7010008F7010008F7010008F701000800
:10010000F7010008F7010008F7010008F7010008EF
:10011000F7010008F7010008F7010008F7010008DF
:10012000F7010008F7010008F7010008F7010008CF
:10013000DFF80CD000F07AF800480047350F0008CF
:1001400080970020224B19680868B0E8F00F80F310
:100150000988BFF36F8F4FF0000080F311884EF0D5
:100160000D0E70470000000006480068006880F32C
:10017000088862B661B6BFF34F8FBFF36F8F00DFA1
:1001800000BF00BF08ED00E0EFF30980BFF36F8F01
:100190000F4B1A6820E9F00F106008B54FF05000BF
:1001A00080F31188BFF34F8FBFF36F8F01F05AFCBC
:1001B0004FF0000080F31188BDE808401968086816
:1001C000B0E8F00F80F30988BFF36F8F704700BF6E
:1001D00038000020EFF30580704700000648804794
:1001E00006480047FEE7FEE7FEE7FEE7FEE7FEE71C
:1001F000FEE7FEE7FEE7FEE7210A000831010008FE
:1002000030B50B46014600202022012409E021FAE6
:1002100002F59D4205D303FA02F5491B04FA02F5E3
:100220002844151EA2F10102F1DC30BD064C074D39
:1002300006E0E06840F0010394E8070098471034B6
:10024000AC42F6D3FFF778FFD81E0008F81E00086E
:100250001CB5012401F0FCF91348032100236202BC
:10026000CDE9001011A1144801F0BEFC0446012C98
:1002700002D112A000F050FD1648022100230A020C
:10028000CDE9001014A1174801F0AEFC0446012C82
:1002900002D115A000F040FD1948006801F0FAFAFB
:1002A00001F018FA1CBD00002C0000204C45445FF2
:1002B0005461736B0000000085070008B4B4BDA84A
:1002C0004C45445F5461736BC8CECEF1B3C9B9A637
:1002D000210D0A00300000204B45595F5461736BBB
:1002E0000000000019060008B4B4BDA84B45595FD2
:1002F0005461736BC8CECEF1B3C9B9A6210D0A0003
:100300002800002010B54FF4407000F08DFA00F086
:10031000ADF900F0D3FB00F029F910BD00BFFEE7F6
:100320007047000010B54FF4004000F027F848B1C6
:100330000548C06880F400500349C8604FF400408D
:1003400000F016F810BD00000010014010B50220AA
:1003500000F014F840B10548C06880F4005003492B
:10036000C860022000F004F810BD00000010014039
:100370000149086070470000140401400146002054
:100380000022074B1B6803EA0102054B14331B686C
:100390000B4013B10AB1012000E0002070470000BB
:1003A000000401402DE9F04102460025002600200E
:1003B00000230024002791F803C00CF00F0591F8EA
:1003C00003C00CF0100CBCF1000F03D091F802C078
:1003D0004CEA050591F800C0BCF1000F31D014685B
:1003E00000202BE04FF0010C0CFA00F3B1F800C034
:1003F0000CEA03069E4220D183004FF00F0C0CFA4A
:1004000003F7BC4305FA03FC4CEA040491F803C06B
:10041000BCF1280F06D14FF0010C0CFA00FCC2F819
:1004200014C00AE091F803C0BCF1480F05D14FF0A9
:10043000010C0CFA00FCC2F810C0401C0828D1D3F3
:100440001460B1F800C0BCF1FF0F34DD5468002027
:100450002EE000F1080C4FF0010808FA0CF3B1F897
:1004600000C00CEA03069E4221D183004FF00F0C1E
:100470000CFA03F7BC4305FA03FC4CEA040491F8B8
:1004800003C0BCF1280F05D100F1080C08FA0CF8E4
:10049000C2F8148091F803C0BCF1480F07D100F1F5
:1004A000080C4FF0010808FA0CF8C2F81080401C44
:1004B0000828CED35460BDE8F0810000F0B50A46AC
:1004C000002300240021002500F00046B6F1004F73
:1004D00002D11D4EF16901E01B4E7168C0F3034566
:1004E00083B200F44016B6F5401F08D121F07061C8
:1004F000154E766826F07066134F7E6012E000F4A9
:100500008016B6F5801F06D1032606FA05F4A1432E
:1005100041F0706106E0460D360103FA06F6B1437C
:1005200041F0706122B1460D360103FA06F63143FF
:1005300000F00046B6F1004F02D1034EF16101E038
:10054000014E7160F0BD0000000001400246002035
:1005500093680B400BB1012000E00020704741611F
:1005600070470161704700BFFEE7000008B5012138
:10057000052000F063F901212448FFF79FFF0121C6
:10058000042000F05BF94FF40040ADF80000482073
:100590008DF8030069461E48FFF704FF012108207B
:1005A00000F04CF94FF48050ADF8000048208DF871
:1005B000030069461748FFF7F5FE0121082000F007
:1005C0003DF94FF40050ADF8000048208DF80300CD
:1005D00069461048FFF7E6FE0121082000F02EF9D9
:1005E0004FF48040ADF8000069460A48FFF7DAFE94
:1005F0000121082000F022F94FF40040ADF800007E
:1006000069460448FFF7CEFE08BD00000002300036
:1006100000080140000C01400AE04FF40041054889
:1006200000F00CF820B14FF400510348FFF797FF9A
:10063000F3E70000000801400010014070B50546D6
:100640000E46002431462846FFF780FF58B9601C4B
:10065000C4B200BF31462846FFF778FF08B9022C24
:10066000F8D0012070BD0020FCE7000008B5012192
:10067000052000F0E3F801214048FFF71FFF0121AA
:10068000102000F0DBF84FF40050ADF8000010200F
:100690008DF8030003208DF8020069463848FFF703
:1006A00081FE0121102000F0C9F84FF40050ADF890
:1006B000000069463248FFF775FE0121102000F066
:1006C000BDF84FF40050ADF8000069462C48FFF724
:1006D00069FE0121102000F0B1F84FF40050ADF890
:1006E000000069462648FFF75DFE0121102000F05A
:1006F000A5F84FF40050ADF8000069462048FFF718
:1007000051FE0121102000F099F84FF40050ADF88F
:10071000000069461A48FFF745FE0121102000F04D
:100720008DF84FF40050ADF8000069461448FFF70B
:1007300039FE4FF400511248FFF713FF4FF40051F8
:100740000F48FFF70EFF4FF400510D48FFF709FF68
:100750004FF400510A48FFF704FF4FF400510848D6
:10076000FFF7FFFE4FF400510548FFF7FAFE4FF484
:1007700000510348FFF7F5FE08BD000000023000FD
:100780000010014011E04FF400510848FFF7E7FE68
:100790004FF4FA7001F040F84FF400510348FFF7AE
:1007A000E0FE4FF4FA7001F037F8ECE7001001407A
:1007B00000BFFEE77047000070B5002100230F2244
:1007C000C47804B3154C246804F4E064C4F5E06410
:1007D000210AC1F10403CA40447804FA03F1847881
:1007E0001440214309010E4C0678A155047804F009
:1007F0001F050124AC4005786D11AD0005F1E02521
:10080000C5F8004109E0047804F01F050124AC405C
:10081000044D0678761145F8264070BD0CED00E0D9
:1008200000E400E080E100E002490143024A116077
:10083000704700000000FA050CED00E029B1064AFF
:1008400092690243044B9A6104E0034A926982432D
:10085000014B9A61704700000010024030B5002142
:100860000022002400232D4D6D6805F00C0121B1FC
:10087000042905D0082923D105E0294D056022E08F
:10088000274D05601FE0254D6D6805F47012234D5E
:100890006D6805F48034022505EB92421CB9214DA8
:1008A000554305600BE01D4D6D6805F400351DB125
:1008B0001C4D5543056002E0194D5543056002E0AB
:1008C000174D056000BF00BF144D6D6805F0F001C5
:1008D0000909154D6B5C0568DD4045600F4D6D687D
:1008E00005F4E061090A104D6B5C4568DD408560E8
:1008F0000A4D6D6805F46051C90A0B4D6B5C456883
:10090000DD40C560054D6D6805F44041890B074D1C
:100910006B5CC568B5FBF3F5056130BD00100240A6
:1009200000127A0000093D0014000020240000207D
:1009300010B500F001F810BD0CB50020019000903A
:100940003348006840F480303149086000BF3048C7
:10095000006800F4003000900198401C019000985D
:1009600018B90198B0F5A06FF1D12948006800F4DA
:10097000003010B10120009001E0002000900098AC
:10098000012843D12348006840F010002149086045
:100990000846006820F0030008600846006840F040
:1009A000020008601A4840681949486008464068D3
:1009B00048600846406840F48060486008464068E7
:1009C00020F47C1048600846406840F4E810486015
:1009D0000846006840F08070086000BF0C4800685E
:1009E00000F000700028F9D00948406820F00300AA
:1009F000074948600846406840F00200486000BF70
:100A00000348406800F00C000828F9D10CBD000034
:100A1000001002400020024010B501F0CBF810BDDC
:100A200010B51348006840F00100114908600846FD
:100A30004068104908400E494860084600680E4961
:100A400008400B4908600846006820F480200860D0
:100A50000846406820F4FE0048604FF41F0088609C
:100A6000FFF766FF4FF000600449086010BD00000A
:100A7000001002400000FFF8FFFFF6FE08ED00E066
:100A800010B540F22551054800F06DF820B103483B
:100A900000F037F90249087010BD0000003801402D
:100AA0003400002021B1828942F40052828104E0A6
:100AB00082894DF6FF731A408281704700B585B078
:100AC00001210420FFF7BAFE01218803FFF7B6FEDB
:100AD0004FF40070ADF8100018208DF813000320BB
:100AE0008DF8120004A91748FFF75CFC4FF48060F2
:100AF000ADF8100004208DF8130004A91148FFF789
:100B000051FC4FF4E13000900020ADF80400ADF846
:100B10000600ADF80800ADF80C000C20ADF80A0096
:100B20006946094800F06EF800F0D8F8012240F25A
:100B30002551054800F041F801210348FFF7B2FFB5
:100B400005B000BD00080140003801400246002009
:100B5000B1F5007F00D100BF13880B400BB101201D
:100B600000E00020704770B50246002400230025F5
:100B7000002040F66A16B14200D100BFC1F3421511
:100B800001F01F03012606FA03F3012D02D1968915
:100B9000334006E0022D02D1168A334001E0968AE6
:100BA00033400C12012606FA04F41688344013B1BF
:100BB0000CB1012000E0002070BDF0B50346002418
:100BC00000260025002040F66A17B94200D100BF78
:100BD0001846C1F3421401F01F06012707FA06F573
:100BE000012C01D10C3004E0022C01D1103000E0C6
:100BF00014301AB107682F43076002E00768AF435B
:100C00000760F0BD2DE9F04786B005460E4600248A
:100C1000A24600BFA1460027B08900B100BF2F4601
:100C20002C8A4CF6FF700440F08804432C82AC8977
:100C30004EF6F3100440B0883189084371890843A7
:100C40000443AC81AC8A4FF6FF400440B0890443B2
:100C5000AC8201A8FFF702FE1F48874202D1DDF8EF
:100C600010A001E0DDF80CA0A88900F4004040B11C
:100C70000AEBCA0000EB0A1031684900B0FBF1F83A
:100C800007E00AEBCA0000EB0A1031688900B0FBEC
:100C9000F1F86420B8FBF0F004012009642101FBA5
:100CA0001089A88900F4004040B1322000EBC9004F
:100CB000B0FBF1F000F00700044308E0322000EB45
:100CC00009106421B0FBF1F000F00F0004432C8107
:100CD00006B0BDE8F08700000038014008B54FF4C9
:100CE000A060FFF7A1FD25208DF8000001208DF800
:100CF00001008DF802008DF803006846FFF75CFDE7
:100D000008BD01468888C0F308007047C1F3080297
:100D10008280704700BFFEE70FB4054B10B503A9F2
:100D2000044A029800F018F810BC5DF814FB0000AB
:100D3000110F00089800002002E008C8121F08C127
:100D4000002AFAD170477047002001E001C1121F4C
:100D5000002AFBD1704700002DE9FF4F8BB09A4667
:100D60000F460546002606E025280BD052460D9971
:100D700090476D1C761C28780028F5D10FB03046BE
:100D8000BDE8F08F0024A0460122604900E0044342
:100D900015F8013F203B02FA03F00842F7D128780A
:100DA0002E2817D115F8010F44F004042A280ED07C
:100DB0006FF02F022878A0F1300109290AD808EB3A
:100DC000880102EB410100EB01086D1CF2E757F8C6
:100DD000048B6D1C287869283ED006DC0028CDD015
:100DE00063280BD0642804D136E0732810D075280E
:100DF0004BD052460D999047761C85E017F8040BAE
:100E00008DF8000000208DF80100E946012003E084
:100E100057F8049B4FF0FF3061074FF0000401D4F6
:100E20000AE0641C44450DDA8442FADB19F8041028
:100E30000029F6D106E0641C8442FCDB19F804109A
:100E40000029F8D1264404E019F8010B52460D9907
:100E50009047641EF8D257E001CF4FF00A0B0028EC
:100E600002DA40422D2102E0210504D52B218DF824
:100E70002410012103E0E10705D02021F7E70DF15F
:100E8000200908910CE00021F9E701CF4FF00A0B8F
:100E9000F9E75946FFF7B4F901F1300209F8012DDD
:100EA0000028F6D1ADEB090000F1200B600701D45A
:100EB0004FF00108D84502DDA8EB0B0000E0002050
:100EC0008046002406E009A85246005D0D9990472F
:100ED000641C761C08988442F5DB04E030205246FE
:100EE0000D999047761CB8F10001A8F10108F5DCD6
:100EF00005E019F8010B52460D999047761CBBF19D
:100F00000001ABF1010BF4DC6D1C34E70928010092
:100F100070B504460D46E1B20548FFF7F7FE00BF85
:100F200080210348FFF712FE0028F9D0204670BD4B
:100F3000003801401CB50124FFF7E4F90BA0FFF7CE
:100F4000EBFE1248012100234A02CDE9001010A156
:100F5000134800F049FE0446012C02D100F024FDA4
:100F600002E04FF0FF301CBD00BFFEE753544D338D
:100F7000322D4672656552544F53C8CECEF1B9DC5E
:100F8000C0EDCAB5D1E9A3A10D0A000028000020D8
:100F90004170705461736B43726561746500000049
:100FA000510200082DE9F04105460E461C4807682D
:100FB0001C480068001D00F001FB50B9194800688A
:100FC00090F82C1001208840174909688143164881
:100FD0000160681C38B936B112480168091D134810
:100FE00000F02AFB1AE07C190E4800684460BC42FD
:100FF00007D20C480168091D0D48006800F002FB8B
:101000000CE008480168091D0A48006800F0FAFA77
:1010100009480068844201D207480460BDE8F081B5
:101020004C00002038000020500000206C030020FD
:10103000400000203C0000206800002010B504465D
:1010400000F006FB23480068401C22490860224843
:10105000006840B9204804600846006801280DD1A6
:1010600000F038F90AE01D48006838B91A480068ED
:10107000C06AE16A884201D81748046018480068CD
:10108000401C1749086094F82C100120884015492D
:101090000968084313490860E16A01EB8101124ABB
:1010A00002EB8100211D00F0C7FA00F013FB0B4892
:1010B000006868B108480068C06AE16A884207D2DF
:1010C0004FF0805009490860BFF34F8FBFF36F8F17
:1010D00010BD00004800002038000020540000200F
:1010E00064000020500000209C00002004ED00E07F
:1010F00070B523E000F0AEFC1348006808B9012089
:1011000000E00020054600F053FEBDB900F0A0FA53
:101110000D48C068C468201D00F050FA0B480068F4
:10112000401E0A4908600A480068401E08490860D5
:1011300000F0D0FA204600F00DF800BF0448006827
:101140000028D7D170BD00005803002048000020BF
:101150004400002010B50446206B00F0F1FA204650
:1011600000F0EEFA10BD000030B54FF41043174800
:1011700000F007042CB1C01D20F00700134C041B25
:101180001B1B0246124C22600024114D6C60D018CB
:10119000083820F007000F4C206000240D4D2D680A
:1011A0006C600C4D2D682C601146441A4C60094C43
:1011B00024680C60084D4C682C60084D4C682C600D
:1011C0004FF00044064D2C6030BD0000800300202D
:1011D000740000207C00002084000020800000209B
:1011E0008800002000BFFFF783FF06480068012841
:1011F000F9D94FF0805004490860BFF34F8FBFF317
:101200006F8FF0E79C00002004ED00E02DE9FF5F08
:1012100081460E469246DDE90E7B109CAAF1010044
:10122000216B01EB800828F0070808F0070008B9D7
:10123000012000E0002028B940F22B321AA121A0A1
:10124000FFF76AFD002507E0715D04F134004155A8
:10125000705D00B902E06D1C102DF5D300BF0021B8
:1012600043200155202F00D31F27E762201D00F0E7
:10127000C6F904F1180000F0C2F92461C7F120009A
:10128000A06164620020606484F8480049464046DA
:10129000039A00F081F92060BBF1000F01D0CBF878
:1012A0000040BDE8FF9F00002E2E5C2E2E5C467293
:1012B000656552544F535C7372635C7461736B73F6
:1012C0002E6300004572726F723A25732C25640DEF
:1012D0000A00000010B5002407E004EB84010F4A67
:1012E00002EB810000F07EF9641C202CF5D30C4841
:1012F00000F078F90B4800F075F90B4800F072F92E
:101300000A4800F06FF90A4800F06CF904480949EE
:10131000086004480849086010BD00009C000020D7
:101320001C03002030030020440300205803002049
:101330006C0300203C0000204000002010B5014656
:10134000164800E0006803688B42FBD302464368FE
:1013500013448B4204D143684C68234443600146E4
:101360000A464B6813440468A34211D10C4C03682D
:101370002468A34208D04B680468646823444B6027
:1013800003681B680B6005E0054B1B680B6001E000
:1013900003680B60884200D0016010BD740000201B
:1013A0007C0000200A490968096809B9012100E0A8
:1013B000002121B14FF0FF31064A116006E00449D7
:1013C0000968C968C868034A41681160704700002D
:1013D0003C000020680000200B480068401C08B951
:1013E000012000E0002020B9F42208A111A0FFF79D
:1013F00093FC00BF502080F31188BFF34F8FBFF3E1
:101400006F8F00BF00BFFEE78C0000202E2E5C2EE9
:101410002E5C4672656552544F535C706F72745CFB
:10142000525644535C41524D5F434D335C706F7272
:10143000742E63004572726F723A25732C25640D09
:101440000A0000002DE9F04104464FF0000800F0CA
:1014500001FB3E48006808B9FFF786FE3C4800687B
:10146000204000285FD1A4B1083404F0070080B107
:1014700004F00700C0F10800044404F0070008B9B4
:10148000012000E0002020B9BF2232A13BA0FFF7DD
:1014900043FC002C47D03D480068844243D83C4E72
:1014A0003046056801E02E462D686868A04202D2E9
:1014B00028680028F7D125480068854233D0306875
:1014C00000F10808286830606868001B102813D9EC
:1014D0002F1907F0070008B9012000E0002020B90B
:1014E000EC221CA125A0FFF717FC6868001B7860A0
:1014F0006C603846FFF722FF244968680968081ABB
:10150000224908600846006822490968884203D2D7
:101510001E4800681F4908600D496868096808434B
:1015200068600020286000F043FC08F0070008B95C
:10153000012000E0002028B94FF4967205A10FA009
:10154000FFF7EAFB4046BDE8F08100007C00002088
:10155000880000202E2E5C2E2E5C4672656552544B
:101560004F535C706F72745C4D656D4D616E675C5E
:10157000686561705F342E63000000004572726F11
:10158000723A25732C25640D0A00000080000020AB
:101590007400002084000020001F4FF0807303605F
:1015A000001F21F001030360001F034B0360143888
:1015B0000260203870470000D913000801460A690C
:1015C000D1E901309860D1E9010358605068884240
:1015D00001D188685060002008611068401E1060CA
:1015E0001068704700F1080141604FF0FF318160E1
:1015F00000F10801C1600161002101607047002114
:101600000161704710B502460B685C1C0CB910698B
:1016100007E002F1080000E04068446824689C424A
:10162000FAD944684C604C68A160886041600A61E6
:101630001468641C146010BD42684A6093688B6033
:10164000936859609160086103685B1C0360704790
:1016500010B500BF502080F31188BFF34F8FBFF348
:101660006F8F00BF0B480068401C0A49086008469D
:10167000006801280DD108480068C0B208B90120EF
:1016800000E0002028B94FF4BD7204A10DA0FFF7BF
:1016900043FB10BD8C00002004ED00E02E2E5C2EDC
:1016A0002E5C4672656552544F535C706F72745C69
:1016B000525644535C41524D5F434D335C706F72E0
:1016C000742E63004572726F723A25732C25640D77
:1016D0000A00000010B50B48006828B940F28112DA
:1016E00009A113A0FFF718FB06480068401E054932
:1016F00008600846006820B9002080F3118800BF08
:1017000000BF10BD8C0000202E2E5C2E2E5C467279
:10171000656552544F535C706F72745C52564453FB
:101720005C41524D5F434D335C706F72742E6300A9
:101730004572726F723A25732C25640D0A00000001
:1017400070B506463546002E35D0083D2C461A4960
:1017500060680968084008B1012000E0002028B94D
:101760004FF4A07215A11FA0FFF7D6FA206808B9A0
:10177000012000E0002028B940F241120FA119A079
:10178000FFF7CAFA0C4960680968084098B12068F8
:1017900088B90949606809688843606000F05AF9AF
:1017A0001449606809680844124908602046FFF738
:1017B000C5FD00F0FDFA70BD880000202E2E5C2EC5
:1017C0002E5C4672656552544F535C706F72745C48
:1017D0004D656D4D616E675C686561705F342E6349
:1017E000000000004572726F723A25732C25640D5B
:1017F0000A00000080000020064800684FF47A715B
:10180000B0FBF1F0401E4FF0E02148610720086175
:10181000704700000000002070B504460025ACB100
:101820000F48006808B9012000E0002028B940F204
:10183000CF420CA112A0FFF76FFA00F00BF90021C4
:101840002046FFF7AFFB00F0B3FA05463DB94FF075
:1018500080500F490860BFF34F8FBFF36F8F70BD8B
:10186000700000202E2E5C2E2E5C46726565525450
:101870004F535C7372635C7461736B732E6300000F
:101880004572726F723A25732C25640D0A000000B0
:1018900004ED00E070B50546FFF7DAFE15B92D48F6
:1018A000006800E028460446201DFFF787FE78B94F
:1018B000E06A00EB8000284951F8200040B994F814
:1018C0002C10012088402549096881432348016084
:1018D000A06A18B104F11800FFF770FE20480068F4
:1018E000401C1F4908601B480068844209D1211D23
:1018F0001C48FFF7A1FE1C480068401C1A490860FC
:1019000009E01A480068401E184908602046FFF7A1
:1019100021FCFFF747FDFFF7DDFE15480068C0B169
:101920000C480068844214D11248006808B90120AC
:1019300000E0002028B940F265420FA115A0FFF792
:10194000EBF94FF0805017490860BFF34F8FBFF39A
:101950006F8F70BD380000209C00002050000020D8
:1019600064000020580300204400002048000020AC
:1019700054000020700000202E2E5C2E2E5C46723B
:10198000656552544F535C7372635C7461736B731F
:101990002E6300004572726F723A25732C25640D18
:1019A0000A00000004ED00E01CB5184800210B46B9
:1019B0008022CDE9001016A1174800F015F9044661
:1019C000012C15D100BF502080F31188BFF34F8F39
:1019D000BFF36F8F00BF4FF0FF3010490860012048
:1019E0000F49086000200F49086000F093F80BE0F1
:1019F000601C08B1012000E0002028B940F2847288
:101A000009A110A0FFF788F91CBD00006C000020A0
:101A100049444C4500000000E51100086800002022
:101A2000540000204C0000202E2E5C2E2E5C4672AE
:101A3000656552544F535C7372635C7461736B736E
:101A40002E6300004572726F723A25732C25640D67
:101A50000A00000002480068401C01490860704705
:101A60007000002010B51B48006818B101201A4909
:101A700008602DE000201849086018480068B0FA96
:101A800080F0C0F11F0404EB8400154951F82000D8
:101A900008B1012000E0002028B940F6F62211A18B
:101AA00017A0FFF739F904EB84010D4A02EB81001E
:101AB00041684968416000F1080142688A4202D1E8
:101AC0004168496841604168C968114A116000BFB6
:101AD00010BD0000700000205C00002050000020BD
:101AE0009C0000202E2E5C2E2E5C467265655254A2
:101AF0004F535C7372635C7461736B732E6300008D
:101B00004572726F723A25732C25640D0A0000002D
:101B1000380000201CB52248014609780191FF21B8
:101B2000024611700146097800919DF8001001F0FD
:101B300050011C4A117007211B4A116009E01A4923
:101B40000968491E184A11609DF800104906090EDF
:101B500000919DF8001001F080018029EFD012491A
:101B600009680902104A11601146098801F4E06110
:101B700011600B4A019911700C48006840F4700024
:101B80000A4908600846006840F070400860FFF7A6
:101B900033FE002006490860FEF7E6FA00201CBD6F
:101BA00000E400E0900000209400002020ED00E020
:101BB0008C00002010B500BF502080F31188BFF3C7
:101BC0004F8FBFF36F8F00BF00F03EF818B14FF09A
:101BD00080500449086000BF002080F3118800BFD6
:101BE00010BD000004ED00E02DE9FF4F85B08046F8
:101BF00089461746DDE912ABB800FFF723FC06461D
:101C000056B14C20FFF71EFC04460CB1266304E0DD
:101C10003046FFF795FD00E000247CB10020CDE9BF
:101C200000ABCDE902403A4649464046089BFFF7E3
:101C3000EDFA2046FFF702FA012501E04FF0FF35EB
:101C4000284609B0BDE8F08F2DE9F0414FF00008BB
:101C500041480068002872D140480068451C3F4850
:101C60000560EDB93E480068006808B9012000E051
:101C7000002028B940F6D9123AA141A0FFF74CF84C
:101C8000374807684248006835490860404807609F
:101C900040480068401C3F490860FFF783FB00BFD5
:101CA0003D48006885423CD300BF2D48006800686D
:101CB00008B9012000E0002020B14FF0FF30364984
:101CC00008602DE026480068C068C4686668B542B0
:101CD00002D23148066023E0201DFFF76FFCA06AA6
:101CE00018B104F11800FFF769FC94F82C100120DA
:101CF00088402A490968084328490860E16A01EBDD
:101D00008101274A02EB8100211DFFF795FC25493F
:101D1000E06A0968C96A8842C7D34FF00108C4E77E
:101D200000BF20480068C06A00EB80001C4951F8E1
:101D30002000012801D94FF0010805E0FFE71A480B
:101D40000068401C184908601848006808B14FF046
:101D500001084046BDE8F081700000204C000020E2
:101D60003C0000202E2E5C2E2E5C4672656552547F
:101D70004F535C7372635C7461736B732E6300000A
:101D80004572726F723A25732C25640D0A000000AB
:101D9000400000206000002068000020500000206B
:101DA0009C00002038000020580000205C0000202B
:101DB00070B5002400263448006828B94FF4FD624D
:101DC00032A139A0FEF7A8FFFFF742FC2E480068B9
:101DD000401E2D4908600846006800284FD136484B
:101DE000006800284BD024E03448C068C46804F17F
:101DF0001800FFF7E3FB201DFFF7E0FB94F82C1021
:101E0000012088402E49096808432D490860E16A8D
:101E100001EB81012B4A02EB8100211DFFF70CFC35
:101E20002949E06A0968C96A884202D30120274922
:101E300008602248006808B9012000E0002000285E
:101E4000D2D00CB1FFF7AEFA2148056865B100BFEA
:101E5000FFF7FAFE10B101201C4908606D1E002D2D
:101E6000F6D100201A4908601848006838B10126E8
:101E7000300718490860BFF34F8FBFF36F8FFFF72C
:101E800029FC304670BD0000700000202E2E5C2E14
:101E90002E5C4672656552544F535C7372635C747A
:101EA00061736B732E6300004572726F723A257313
:101EB0002C25640D0A000000480000204403002087
:101EC000500000209C000020380000205C00002012
:101ED0005800002004ED00E0F81E0008000000207B
:101EE0009C000000380D0008941F00089C00002092
:101EF000E4960000480D000800A24A04000000001B
:101F000000000000010203040607080900000000A9
:101F1000010203040102030406070809020406087B
:101F200000000000000000000000000000000000B1
:101F300000000000000000000000000000000000A1
:101F40000000000000000000000000000000000091
:101F50000000000000000000000000000000000081
:101F60000000000000000000000000000000000071
:101F70000000000000000000000000000000000061
:101F800000000000AAAAAAAA0000000000000000A9
:041F9000000000004D
:0400000508000131BD
:00000001FF
